:020000040800F2
:10000000D8190020510500083D0200083F020008F1
:100010004B020008570200086302000800000000BD
:100020000000000000000000000000006F02000857
:100030007102000800000000670500087302000854
:100040006B0500086B0500086B05000877020008C7
:100050006B0500086B050008750200086B050008B9
:100060006B0500086B0500086B0500086B050008B0
:100070006B0500086B0500086B0500086B050008A0
:100080006B0500086B0500086B0500086B05000890
:100090006B0500086B0500086B0500086B05000880
:1000A0006B0500086B0500086B0500086B05000870
:1000B0006B050008873900086B0500086B05000810
:1000C0006B0500086B0500086B0500086B05000850
:1000D0006B0500080B2300086D9A0008C14C00084E
:1000E0006B0500086B0500086B05000800F002F8BE
:1000F00000F094F80AA090E8000C82448344AAF12E
:100100000107DA4501D100F089F8AFF2090EBAE82B
:100110000F0013F0010F18BFFB1A43F0010318473B
:1001200040F5000060F50000103A24BF78C878C19F
:10013000FAD8520724BF30C830C144BF04680C60ED
:10014000704700000023002400250026103A28BF35
:1001500078C1FBD8520728BF30C148BF0B60704739
:100160006E290AF03783702909F0958666290EF00A
:100170006E8065290EF06B8067290EF0688061291A
:100180000EF0678003681B0A28BF41F080016929CF
:1001900009F00686642909F00386752909F00086AE
:1001A0006F290AF03486782909F06186E9290AF076
:1001B000CF85E4290AF0CC85F5290AF0C985EF2915
:1001C0000AF03186F82909F060860368DB0928BF48
:1001D00041F0800163290AF0508573290AF05585A2
:1001E000E3290BF0AB80F3290BF0B08000207047BF
:1001F0001FB59DE803000AF041FA0AF067FE04000B
:10020000002000210CF028FF401C6060002000212D
:100210000CF038FFE0601FBD10B510BD0BF0EEFA1A
:100220001146FFF7E5FF07F01DF90BF00CFB03B4D7
:10023000FFF7F2FF03BC0BF03DFB000070470EA17F
:100240001C4802F03EF800BFFEE71BA1194802F06F
:1002500038F800BFFEE727A1164802F032F800BFC9
:10026000FEE733A1134802F02CF800BFFEE7704709
:1002700070477047704770470D0A2A2A2A2A2A2A8F
:100280002A2A2A2A2A2A2A2A2A2A2A2A2A48617231
:10029000644661756C745F48616E646C65722A2A8D
:1002A0002A2A2A2A2A2A2A2A2A2A2A2A2A2A2A2AAE
:1002B0002A0D0A00003801400D0A2A2A2A2A2A2A71
:1002C0002A2A2A2A2A2A2A2A2A2A2A2A2A4D656DED
:1002D0004D616E6167655F48616E646C65722A2A64
:1002E0002A2A2A2A2A2A2A2A2A2A2A2A2A2A2A2A6E
:1002F0002A0D0A000D0A2A2A2A2A2A2A2A2A2A2A02
:100300002A2A2A2A2A2A2A2A2A4275734661756CC1
:10031000745F48616E646C65722A2A2A2A2A2A2A26
:100320002A2A2A2A2A2A2A2A2A2A2A2A0D0A0000BE
:100330000D0A2A2A2A2A2A2A2A2A2A2A2A2A2A2A5A
:100340002A2A2A2A2A55736167654661756C745F8B
:1003500048616E646C65722A2A2A2A2A2A2A2A2A65
:100360002A2A2A2A2A2A2A2A2A2A0D0A00000000D2
:100370000CB50020019000906C48006840F480307B
:100380006A49086000BF6948006800F400300090C6
:100390000198401C0190009818B90198B0F5A06F21
:1003A000F1D16248006800F4003010B101200090E3
:1003B00001E0002000900098012843D15C480068CB
:1003C00040F010005A4908600846006820F0030019
:1003D00008600846006840F0020008605348406822
:1003E000524948600846406848600846406840F402
:1003F000806048600846406820F47C1048600846E9
:10040000406840F4E81048600846006840F080709A
:10041000086000BF4548006800F000700028F9D06F
:100420004248406820F00300404948600846406860
:1004300040F00200486000BF3C48406800F00C00FB
:100440000828F9D10CBD10B5FFF792FF10BD10B50B
:100450003648006840F001003449086008464068AA
:10046000344908403149486008460068324908402C
:100470002E4908600846006820F48020086008467D
:10048000406820F4FE0048604FF41F008860FFF7CA
:10049000DAFF4FF000602949086010BD10B5002157
:1004A00000200022214B5B6803F00C0121B10429DC
:1004B00006D0082928D107E0214B224C236027E0F1
:1004C0001F4B204C236023E0184B5B6803F4701033
:1004D000164B5B6803F48032022303EB904022B991
:1004E000194B4343174C23600DE0104B5B6803F43A
:1004F000003323B1144B4343124C236003E0104BF1
:100500004343104C236003E00D4B0E4C236000BFAF
:1005100000BF064B5B68C3F303130C4CE15C094B53
:100520001B68CB40074C236010BD00000010024048
:10053000002002400000FFF8FFFFF6FE08ED00E09B
:1005400000127A000000002000093D000400002095
:100550000948804709480047FEE7FEE7FEE7FEE757
:10056000FEE7FEE7FEE7FEE7FEE7FEE70448054993
:10057000054A064B704700004F040008ED000008D4
:10058000D8070020D8190020D8090020D809002059
:1005900031490143314A1160704770B50021002391
:1005A0000F22C47804B32D4C246804F4E064C4F52D
:1005B000E064210AC1F10403CA40447804FA03F15B
:1005C0008478144021430901254C0678A15504780C
:1005D00004F01F050124AC4005786D11AD0005F154
:1005E000E025C5F8004109E0047804F01F05012466
:1005F000AC401C4D0678761145F8264070BD1A4A6D
:100600000A400243154B1B1F1A60704739B1134A49
:10061000121D12680243114B1B1D1A6006E00F4A9F
:10062000121D126882430D4B1B1D1A60704704286F
:1006300008D14FF0E021096941F004014FF0E022B8
:10064000116107E04FF0E021096921F004014FF04A
:10065000E0221161704700000000FA050CED00E097
:1006600000E400E080E100E080FFFF1F10B50446D9
:10067000CC48844208D10121042000F02DFB002148
:10068000042000F029FB46E0C748844208D101213C
:10069000082000F021FB0021082000F01DFB3AE0BB
:1006A000C248844208D10121102000F015FB00212E
:1006B000102000F011FB2EE0BD48844208D101213A
:1006C000202000F009FB0021202000F005FB22E0A3
:1006D000B848844208D10121402000F0FDFA0021F1
:1006E000402000F0F9FA16E0B348844208D1012115
:1006F000802000F0F1FA0021802000F0EDFA0AE0FD
:10070000AE48844207D10121801500F0E5FA0021AE
:10071000A01500F0E1FA10BD10B50121084600F067
:10072000DBFA0021012000F0D7FA10BD2DE9F041DD
:10073000024600250026002000230024002791F80F
:1007400003C00CF00F0591F803C00CF0100CBCF1C5
:10075000000F03D091F802C04CEA050591F800C0E3
:10076000BCF1000F31D0146800202BE04FF0010CD9
:100770000CFA00F3B1F800C00CEA03069E4220D147
:1007800083004FF00F0C0CFA03F7BC4305FA03FC8F
:100790004CEA040491F803C0BCF1280F06D14FF0D5
:1007A000010C0CFA00FCC2F814C00AE091F803C076
:1007B000BCF1480F05D14FF0010C0CFA00FCC2F857
:1007C00010C0401C0828D1D31460B1F800C0BCF19F
:1007D000FF0F34DD546800202EE000F1080C4FF0CC
:1007E000010808FA0CF3B1F800C00CEA03069E42B7
:1007F00021D183004FF00F0C0CFA03F7BC4305FA2C
:1008000003FC4CEA040491F803C0BCF1280F05D1A5
:1008100000F1080C08FA0CF8C2F8148091F803C033
:10082000BCF1480F07D100F1080C4FF0010808FA9D
:100830000CF8C2F81080401C0828CED35460BDE8E4
:10084000F0814FF6FF710180022181700421C17097
:1008500070470246002093680B400BB1012000E076
:10086000002070470146886880B270470246002029
:10087000D3680B400BB1012000E000207047014617
:10088000C86880B2704701617047416170470AB122
:10089000016100E041617047C16070474FF48032F0
:1008A0000A4382618161826182698269704702467E
:1008B0000020434B18684FF68073184040EA02103E
:1008C00008433F4B186070473E49C8617047F0B518
:1008D0000A46002300240021002500F00046B6F15E
:1008E000004F02D1364EF16901E0354E7168C0F318
:1008F000034583B200F44016B6F5401F08D121F03D
:1009000070612F4E766826F070662D4F7E6012E083
:1009100000F48016B6F5801F06D1032606FA05F40A
:10092000A14341F0706106E0460D360103FA06F678
:10093000B14341F0706122B1460D360103FA06F66B
:10094000314300F00046B6F1004F02D11C4EF16178
:1009500001E01B4E7160F0BD30B500228B071C0F0B
:100960000F2303FA04F2164B08338C1053F824308B
:100970009343134C08348D1044F8253023468C10D3
:1009800053F824308C07240F00FA04F423430C4C52
:1009900008348D1044F8253030BD0A49DC31086038
:1009A0007047000000080140000C014000100140A9
:1009B0000014014000180140001C014000200140CB
:1009C0000000014000002042DF48006840F00100C4
:1009D000DD49086008464068DC490840DA4948605B
:1009E00008460068DA490840D749086008460068A8
:1009F00020F4802008600846406820F4FE0048602B
:100A00004FF41F0088607047CF49096821F4803196
:100A1000CD4A11601146096821F480211160B0F5BA
:100A2000803F03D0B0F5802F0ED106E0C64909689B
:100A300041F48031C44A116007E0C349096841F4B8
:100A4000A021C14A116000E000BF00BF704710B58F
:100A500001460022002300204A11012A02D1BA4C8B
:100A6000236806E0022A02D1B74C236A01E0B64CA3
:100A7000636A01F01F02012494401C400CB1012064
:100A800000E0002010BD38B50020009000240025B3
:100A900000BF3120FFF7DBFF05460098401C0090A7
:100AA0000098B0F5A06F01D0002DF2D03120FFF7F3
:100AB000CEFF08B1012400E00024204638BD0146E5
:100AC0000020A14A106820F0F80040EAC100106040
:100AD0007047A04908607047024600209A4B58684A
:100AE00020F47C1042EA01031843974B586070478A
:100AF00098490866704701460020934A506820F0E4
:100B000003000843506070478F48406800F00C00B5
:100B10007047014600208C4A506820F0F0000843DE
:100B20005060704701460020874A506820F4E0601A
:100B300008435060704701460020834A506820F403
:100B4000605040EAC1005060704729B17E4A527A35
:100B500002437D4B5A7204E07B4A527A82437A4BBD
:100B60005A7270477B49D8310860704701460020AF
:100B7000754A506820F44040084350607047002197
:100B8000714A20321170704A82F82010012802D078
:100B900004280AD104E001216B4A2032117005E0DB
:100BA0000521694A2032117000E000BF00BF704784
:100BB0006949086070476449096A0143624A1162E1
:100BC0007047654944390860704730B500210022FC
:100BD000002400235C4D6D6805F00C0121B104294F
:100BE00005D0082923D105E05C4D056022E05B4D6E
:100BF00005601FE0544D6D6805F47012524D6D682C
:100C000005F48034022505EB92421CB9544D55433E
:100C100005600BE04C4D6D6805F400351DB1504D7D
:100C20005543056002E04D4D5543056002E04B4DD4
:100C3000056000BF00BF444D6D6805F0F001090973
:100C4000484D6B5C0568DD4045603F4D6D6805F4BF
:100C5000E061090A434D6B5C4568DD4085603A4DB3
:100C60006D6805F46051C90A3E4D6B5C4568DD4016
:100C7000C560354D6D6805F44041890B3A4D6B5C9C
:100C8000C568B5FBF3F5056130BD29B12E4A52693F
:100C900002432D4B5A6104E02B4A526982432A4B8E
:100CA0005A61704729B1284A92690243264B9A61DA
:100CB00004E0254A92698243234B9A61704729B127
:100CC000214AD2690243204BDA6104E01E4AD2690C
:100CD00082431D4BDA61704729B11B4AD268024337
:100CE000194BDA6004E0184AD2688243164BDA6086
:100CF000704729B1144A12690243134B1A6104E088
:100D0000114A12698243104B1A61704712494039E7
:100D1000086070470F49C86470470B49C871704735
:100D20000948406A40F080700749486270470146B0
:100D30000020054A92680A400AB1012000E0002024
:100D40007047014988727047001002400000FFF8A8
:100D5000FFFFF6FE000042428004424200127A0089
:100D600000093D00140000202400002010B50446B6
:100D7000FB48844209D101218803FFF7ADFF002120
:100D80004FF48040FFF7A8FF32E0F648844209D1D3
:100D900001214804FFF7ADFF00214FF40030FFF7B9
:100DA000A8FF25E0F048844209D101218804FFF71B
:100DB000A0FF00214FF48020FFF79BFF18E0EB48D5
:100DC000844209D10121C804FFF793FF00214FF4A9
:100DD0000020FFF78EFF0BE0E548844208D1012197
:100DE0000805FFF786FF00214FF48010FFF781FF11
:100DF00010BD2DE9F04786B005460E460024A246F8
:100E000000BFA1460027B08900B100BF2F462C8A41
:100E10004CF6FF700440F08804432C82AC894EF6F7
:100E2000F3100440B08831890843718908430443B2
:100E3000AC81AC8A4FF6FF400440B0890443AC82D9
:100E400001A8FFF7C2FEC648874202D1DDF810A014
:100E500001E0DDF80CA0A88900F4004040B10AEBE5
:100E6000CA0000EB0A1031684900B0FBF1F807E056
:100E70000AEBCA0000EB0A1031688900B0FBF1F8F8
:100E80006420B8FBF0F004012009642101FB108903
:100E9000A88900F4004040B1322000EBC900B0FB4B
:100EA000F1F000F00700044308E0322000EB0910E5
:100EB0006421B0FBF1F000F00F0004432C8106B078
:100EC000BDE8F0874FF41651016000218180C18098
:100ED00001810C21418100218181704710B50246BA
:100EE0000020108A4FF2FF0318400B884C882343E0
:100EF0008C882343CC8823431843108210BD0021E3
:100F0000018041808180C180704721B1828942F493
:100F10000052828104E082894DF6FF731A4082817B
:100F20007047F0B50346002400260025002040F657
:100F30006A17B94200D100BF1846C1F3421401F04C
:100F40001F06012707FA06F5012C01D10C3004E039
:100F5000022C01D1103000E014301AB107682F4381
:100F6000076002E00768AF430760F0BD1AB1838AEB
:100F70000B43838202E0838A8B4383827047028A19
:100F80004FF6F0731A400282028A0A4302827047C7
:100F900082894FF2FF731A40828182890A438281DB
:100FA000704721B1828942F00202828104E0828985
:100FB0004FF6FD731A4082817047028A4FF6DF7345
:100FC0001A400282028A0A430282704721B1028AD1
:100FD00042F48042028204E0028A4BF6FF731A4018
:100FE00002827047C1F308028280704701468888F8
:100FF000C0F308007047818941F001018181704789
:10100000028BD2B20283028B42EA01220283704732
:10101000028B02F47F420283028B0A4302837047F1
:1010200021B1828A42F02002828204E0828A4FF655
:10103000DF731A408282704721B1828A42F0100227
:10104000828204E0828A4FF6EF731A4082827047F0
:1010500021B1828A42F00802828204E0828A4FF63D
:10106000F7731A408282704721B1828942F40042AC
:10107000828103E08289C2F30E028281704721B12E
:10108000828A42F40062828204E0828A4FF2FF7315
:101090001A4082827047828A4FF6FB731A4082821E
:1010A000828A0A438282704721B1828A42F0020218
:1010B000828204E0828A4FF6FD731A408282704772
:1010C00002460020B1F5007F00D100BF13880B401D
:1010D0000BB1012000E00020704701F40072B2F56E
:1010E000007F00D100BFCA430280704770B502463E
:1010F000002400230025002040F66A16B14200D1EA
:1011000000BFC1F3421501F01F03012606FA03F3E5
:10111000012D02D19689334006E0022D02D1168AB4
:10112000334001E0968A33400C12012606FA04F49B
:101130001688344013B10CB1012000E0002070BDCE
:1011400010B50022002340F66A14A14200D100BF6E
:101150000A1201249440A3B2DC43048010BD0000B5
:10116000003801400044004000480040004C00406E
:101170000050004010B50446FE48844208D10121C9
:10118000C014FFF7A9FD0021E014FFF7A5FDC4E09E
:10119000B4F1804F08D101210846FFF7AAFD0021D4
:1011A0000120FFF7A6FDB8E0F348844208D10121F1
:1011B0000220FFF79EFD00210220FFF79AFDACE020
:1011C000EE48844208D101210420FFF792FD00215E
:1011D0000420FFF78EFDA0E0E948844208D10121F8
:1011E0000820FFF786FD00210820FFF782FD94E02C
:1011F000E448844208D101211020FFF77AFD002144
:101200001020FFF776FD88E0DF48844208D10121F5
:101210002020FFF76EFD00212020FFF76AFD7CE013
:10122000DA48844208D101214014FFF755FD00211E
:101230006014FFF751FD70E0D548844209D10121C7
:10124000C804FFF749FD00214FF40020FFF744FDDB
:1012500063E0D048844209D101210805FFF73CFD35
:1012600000214FF48010FFF737FD56E0CA48844252
:1012700009D101214805FFF72FFD00214FF400108F
:10128000FFF72AFD49E0C548844208D101214020EA
:10129000FFF72FFD00214020FFF72BFD3DE0C04868
:1012A000844208D101218020FFF723FD0021802006
:1012B000FFF71FFD31E0BB48844208D101218015B2
:1012C000FFF717FD0021A015FFF713FD25E0B64835
:1012D000844209D101210804FFF7FEFC00214FF4EC
:1012E0008030FFF7F9FC18E0B048844209D10121B1
:1012F0004804FFF7F1FC00214FF40030FFF7ECFC4D
:101300000BE0AB48844208D101218804FFF7E4FCDC
:1013100000214FF48020FFF7DFFC10BD002202887F
:10132000944B98420ED0994B98420BD0B0F1804F1D
:1013300008D0914B984205D0904B984202D0904BE8
:10134000984204D14FF68F731A404B881A438D4B45
:10135000984207D08C4B984204D04FF6FF431A4076
:10136000CB881A4302808B8883850B880385814B49
:1013700098420BD0854B984208D08B4B984205D0B1
:101380008A4B984202D08A4B984201D10B7A03864D
:1013900001238382704770B5002400220023058C4E
:1013A0004FF6FE7635400584028C8388048B4FF619
:1013B0008F752C40B51E2C400D882C43751E2A407D
:1013C0000D892A434D882A436A4DA8420BD06F4DA0
:1013D000A84208D0744DA84205D0744DA84202D04E
:1013E000734DA84213D14FF6F7752A404D892A4311
:1013F0004FF6FB752A408D882A434FF6FF652B4038
:101400004FF6FF552B408D892B43CD892B4383808D
:101410000483CD888586028470BD70B500240022C7
:101420000023058C4FF6EF7635400584028C8388C7
:10143000048B48F6FF752C404FF6FF452C400D8875
:101440004FF6FF7606EA05252C434FF6DF752A4056
:101450000D8906EA05152A434D8806EA05152A4333
:10146000444DA84202D0494DA8421DD14FF67F7588
:101470002A404D894FF6FF7606EA05152A434FF6B6
:10148000BF752A408D8806EA05152A434FF6FF35B9
:101490002B404FF2FF752B408D8906EA85052B43C3
:1014A000CD8906EA85052B4383800483CD88058793
:1014B000028470BD70B5002400220023058C4FF615
:1014C000FF6635400584028C8388848B4FF68F75C8
:1014D0002C404FF6FC752C400D882C434FF6FF55E1
:1014E0002A400D894FF6FF7606EA05252A434D88E6
:1014F00006EA05252A431F4DA84202D0234DA842E3
:101500001DD14FF2FF752A404D894FF6FF7606EA4E
:1015100005252A434FF6FF352A408D8806EA052522
:101520002A434EF6FF752B404DF6FF752B408D89F3
:1015300006EA05152B43CD8906EA05152B43838062
:101540008483CD888587028470BD70B50022002316
:101550000024058C4EF6FF7635400584038C848884
:10156000828B48F6FF752A404FF6FF452A400D88CA
:1015700020E00000002C0140000400400008004072
:10158000000C0040001000400014004000340140F6
:10159000004C014000500140005401400018004040
:1015A000001C004000200040004001400044014079
:1015B000004801404FF6FF7606EA05252A434DF61E
:1015C000FF752B400D8906EA05352B434D8806EA49
:1015D00005352B43FA4DA84202D0FA4DA84208D156
:1015E0004BF6FF752C408D894FF6FF7606EA851580
:1015F0002C4384808283CD88A0F84050038470BD42
:10160000828B4FF2FF331A408283828B4FF6FF7337
:1016100003EA01231A4382837047F0B50C4615464E
:10162000002200210026078C4EF6FF7C07EA0C07FB
:101630000784828B018C4FF6FF7707EA043640F669
:10164000FF473A404FF6FF7707EA05273A434FF640
:10165000FF7707EA03373A43D94FB8420ED0D94F44
:10166000B8420BD0B0F1804F08D0D74FB84205D068
:10167000D64FB84202D0D64FB84206D14DF6FF77CA
:10168000394046F48057394305E047F6FF57394063
:1016900044F48057394382830184F0BD828B4FF636
:1016A000F3731A408283828B0A4382837047F0B5BA
:1016B0000C461546002200210026078C4FF6FF6CD1
:1016C00007EA0C070784828B018C4FF6FF7707EA45
:1016D00004264FF60C773A404FF6FF7707EA0317D8
:1016E0002F433A43B64FB8420ED0B64FB8420BD054
:1016F000B0F1804F08D0B44FB84205D0B34FB842D4
:1017000002D0B34FB84206D14FF6FF57394046F4E6
:101710008077394305E04FF2FF57394044F4807732
:10172000394382830184F0BD028B4FF2FF331A40AC
:101730000283028B4FF6FF7303EA01231A430283ED
:101740007047F0B50C461546002200210026078C94
:101750004FF6EF7C07EA0C070784028B018C4FF6EB
:10176000FF7707EA041640F6FF473A404FF6FF7747
:1017700007EA03373A434FF6FF7707EA05273A436C
:101780008F4FB8420ED08F4FB8420BD0B0F1804F80
:1017900008D08D4FB84205D08C4FB84202D08C4F44
:1017A000B84206D14FF6DF77394046F0100739438B
:1017B00005E04FF65F77394044F010073943028364
:1017C0000184F0BD028B4FF6F3731A400283028B43
:1017D0000A4302837047F0B50C46154600220021EB
:1017E000068C4FF6FE773E400684028B018C4FF646
:1017F0000C7632407E1C06EA03162E433243704EAE
:10180000B0420ED06F4EB0420BD0B0F1804F08D036
:101810006D4EB04205D06D4EB04202D06C4EB0421B
:1018200006D14FF6FD76314044F00106314305E024
:101830004FF6F576314044F00106314302830184CE
:10184000F0BD70B505460C465D4885420ED05D483A
:1018500085420BD0B5F1804F08D05B48854205D05A
:101860005A48854202D05A48854200D100E000BF64
:10187000208850B92389A28861882846FFF7ABFFEA
:10188000E1882846FFF79EFF25E0208804280AD13A
:101890002389A28861882846FFF753FFE1882846FC
:1018A000FFF742FF17E0208808280AD12389A28881
:1018B00061882846FFF7FBFEE1882846FFF7EEFE29
:1018C00009E02389A28861882846FFF7A6FEE188FF
:1018D0002846FFF795FE70BD2DE9F04105460C4600
:1018E00000260127608808B9022600E00026A088AB
:1018F000012801D1022700E001272088A0B923890F
:10190000A28861882846FFF766FFE1882846FFF72E
:1019100059FF23893A4631462846FFF712FFE188EE
:101920002846FFF701FF13E02389A2886188284633
:10193000FFF707FFE1882846FFF7F6FE23893A46BE
:1019400031462846FFF747FFE1882846FFF73AFF70
:10195000BDE8F0810A884B881A438B881A43CB88EC
:101960001A430B891A434B891A438B891A43A0F8EF
:10197000442070474FF6FF71818000210180C180B3
:101980004180017270470021018041808180C180C7
:10199000018141818181C1817047002101804180A5
:1019A000012181800021C1800181704700210180D7
:1019B00041808180C1800181418181817047000027
:1019C000002C0140003401400004004000080040A9
:1019D000000C004021B1028842F00102028004E0C4
:1019E00002884FF6FE731A400280704731B1B0F89A
:1019F000442042F40042A0F8442005E0B0F844201E
:101A0000C2F30E02A0F8442070471AB183890B4339
:101A1000838102E083898B43838170478182704791
:101A200041EA0203A0F8483070471AB183890B439A
:101A3000838102E083898B438381704701894FF65C
:101A4000F8721140018170470A46002101894FF662
:101A50008F73194011430181704730B504460D461C
:101A600029462046FFF7F0FF208940F0070020813B
:101A700030BD2DE9F04104460D4616461F46602D47
:101A800006D13B46012231462046FFF75AFE05E0CB
:101A90003B46012231462046FFF79DFE294620465F
:101AA000FFF7D2FF208940F007002081BDE8F081D8
:101AB00030B50C4600210189C9B24FF6FF7505EA21
:101AC0000325154325432943018130BD2DE9F0410C
:101AD00005460E4617469846002443463A46314688
:101AE0002846FFF7E5FF2C894FF6F870044044F0D4
:101AF00007044FF68F70044044F070042C81BDE859
:101B0000F081F0B504460D4616461F463B46324668
:101B100029462046FFF7CCFF208940F480402081F1
:101B2000F0BD0185828270470A46002101884FF688
:101B30008F731940114301807047F0B50C4615466C
:101B40001E460021002200230189028B038C4FF6E0
:101B5000F877394021434FF6FC473A4040F20117ED
:101B60003A434FF6DD773B404FF6FF7707EA06171B
:101B70002F433B43018102830384F0BD0A460021C9
:101B8000018B4FF68F7319401143018370470A464A
:101B90000021018B48F6FF7319404FF6FF7303EAEB
:101BA00002231943018370470A460021818B4FF6B7
:101BB0008F7319401143818370470A460021818B3E
:101BC00048F6FF7319404FF6FF7303EA02231943E7
:101BD0008183704721B1028842F08002028004E0D4
:101BE00002884FF67F731A400280704721B18288C5
:101BF00042F00402828004E082884FF6FB731A40B0
:101C00008280704721B1828842F00802828004E01D
:101C100082884FF6F7731A408280704721B182881C
:101C200042F00102828004E082884FF6FE731A407F
:101C3000828070470A460021018B4FF6F7731940E6
:101C40001143018370470A460021018B4FF2FF7355
:101C500019404FF6FF7303EA0223194301837047CB
:101C60000A460021818B4FF6F77319401143818397
:101C700070470A460021818B4FF2FF7319404FF6DF
:101C8000FF7303EA02231943818370470A46002148
:101C9000018B4FF6FB7319401143018370470A46CD
:101CA0000021018B4FF6FF3319404FF6FF7303EA13
:101CB00002231943018370470A460021818B4FF6A6
:101CC000FB7319401143818370470A460021818BC1
:101CD0004FF6FF3319404FF6FF7303EA022319430F
:101CE000818370470A460021018B4FF67F731940AC
:101CF0001143018370470A460021018BC1F30E0195
:101D00004FF6FF7303EA02231943018370470A4623
:101D10000021818B4FF67F731940114381837047F7
:101D20000A460021818BC1F30E014FF6FF7303EACF
:101D300002231943818370470A460021018C4FF624
:101D4000FD7319401143018470470A460021018C3C
:101D50004FF6F77319401143018470470A4600217A
:101D6000018C4FF6DF7319404FF6FF7303EA02133D
:101D70001943018470470A460021018C4FF67F7396
:101D800019404FF6FF7303EA0213194301847047A9
:101D90000A460021018C4FF6FF5319404FF6FF739E
:101DA00003EA02231943018470470A460021018C8B
:101DB0004FF2FF7319404FF6FF7303EA02231943F2
:101DC000018470470A460021018C4DF6FF731940CB
:101DD0004FF6FF7303EA023319430184704730B5AD
:101DE000002301248C40A3B2048C9C430484048C03
:101DF00002FA01F5ADB22C43048430BD30B50023A6
:101E000004248C40A3B2048C9C430484048C02FA06
:101E100001F5ADB22C43048430BD70B503460020FB
:101E200000241846183001258D40ACB21D8CA54306
:101E30001D8409B1082909D100EB6100056825F06E
:101E4000700505600568154305600EE00D1FC5F3BC
:101E50004E052844056825F4E045056005684FF601
:101E6000FF7606EA02263543056070BD21B102887F
:101E700042F00202028004E002884FF6FD731A402D
:101E80000280704721B1028842F00402028004E01F
:101E900002884FF6FB731A400280704721B1828896
:101EA00042F08002828004E082884FF67F731A40FD
:101EB0008280704702884FF6F7731A4002800288CA
:101EC0000A430280704782884FF68F731A408280DF
:101ED00082880A438280704702894FF6F8731A405D
:101EE000028102890A430281704702894FF67F739B
:101EF0001A40028102890A43028170478184704737
:101F00008185704781867047018770478187704758
:101F1000A0F84010704702884FF6FF431A40028035
:101F200002880A43028070470146888E7047014646
:101F3000088F70470146888F70470146B1F840000E
:101F400070470146888C70470146088D70470246ED
:101F50000020138A0B400BB1012000E000207047E5
:101F6000CA430282704730B5024600200023002495
:101F7000158A05EA0103958905EA010413B10CB13C
:101F8000012000E0002030BDCA43028270470000FB
:101F90004FF0E020006920F004004FF0E0210861DC
:101FA0000920364908700846007800EB4001C1EB73
:101FB000C0104FF6FF7101EAC00031490880704738
:101FC000002120F07F402D4A127842434FF0E02359
:101FD0005A6100229A6101221A6100BF4FF0E0228B
:101FE000116901F001021AB101F48032002AF5D022
:101FF00000224FF0E0231A619A617047002100B976
:10200000704720F07F401E4A128842434FF0E02381
:102010005A6100229A6101221A6100BF4FF0E0224A
:10202000116901F001021AB101F48032002AF5D0E1
:1020300000224FF0E0231A619A6100BFE0E770B51B
:102040000446002600254FF4FA7094FBF0F0C6B267
:102050004FF4FA7094FBF0F100FB114085B205E0FB
:102060004FF4FA70FFF7CAFF701EC6B2002EF7D108
:1020700015B12846FFF7C2FF70BD00002800002000
:102080002A00002010B586B0044601210420FEF786
:1020900009FE01218803FEF705FE18208DF81700C0
:1020A0004FF40070ADF8140003208DF8160005A958
:1020B0009C48FEF73BFB04208DF817000002ADF8AA
:1020C000140003208DF8160005A99648FEF72EFB94
:1020D00001940020ADF810000C20ADF80E00002097
:1020E000ADF80C00ADF80A00ADF8080001A98E4863
:1020F000FEF77FFE01218C48FEF707FF012240F228
:1021000025518948FEF70DFF25208DF8000001209C
:102110008DF8030000208DF8010002208DF80200E8
:102120006846FEF73AFA06B010BD10B586B0044610
:1021300001210420FEF7B6FD01214804FEF7BFFD92
:1021400018208DF817000420ADF8140003208DF836
:10215000160005A97348FEF7E9FA04208DF8170068
:102160000820ADF8140003208DF8160005A96D486D
:10217000FEF7DCFA01940020ADF810000C20ADF859
:102180000E000020ADF80C00ADF80A00ADF8080014
:1021900001A96648FEF72DFE01216448FEF7B5FE51
:1021A000012240F225516148FEF7BBFE26208DF842
:1021B000000001208DF8030000208DF801008DF84B
:1021C00002006846FEF7E9F906B010BD10B586B00A
:1021D000044601210820FEF765FD01218804FEF771
:1021E0006EFD18208DF817004FF48060ADF81400D4
:1021F00003208DF8160005A94D48FEF797FA042034
:102200008DF817004002ADF8140003208DF8160079
:1022100005A94748FEF78AFA01940020ADF810009E
:102220000C20ADF80E000020ADF80C00ADF80A004F
:10223000ADF8080001A93F48FEF7DBFD01213D484C
:10224000FEF763FE012240F225513A48FEF769FE8F
:1022500027208DF8000001208DF8030000208DF864
:1022600001008DF802006846FEF797F906B010BD30
:1022700070B504460D46E1B22B48FEF7B3FE00BF31
:1022800080212948FEF71CFF0028F9D0204670BDA8
:102290002DE9F04107460C46154600260DE014F8DE
:1022A000011B3846FEF79EFE00BF40213846FEF770
:1022B00007FF0028F9D0701C86B2AE42EFDBBDE804
:1022C000F0810FB430B5CBB0054601AC50A80090FA
:1022D0004FF4947101A8009B4F9A07F0C5FC0020B1
:1022E00000900BE014F8011B2846FEF77BFE00BFB0
:1022F00080212846FEF7E4FE0028F9D02078002847
:10230000F0D14BB030BC5DF814FB10B540F2255154
:102310000548FEF7EBFE18B120210348FEF7DDFE6D
:1023200010BD00000008014000380140004400409A
:10233000000C01400048004008B501211020FEF7C4
:10234000B1FC10208DF803004002ADF8000003201E
:102350008DF8020069460E48FEF7E8F94FF4005187
:102360000B48FEF790FA08BD10B54FF4FA70FFF76E
:1023700045FE4FF400510648FEF787FA4FF4FA7015
:10238000FFF73CFE4FF400510148FEF77CFA10BD08
:102390000010014010B5044622464021FB48FEF7DC
:1023A00076FA10BD10B5044622468021F748FEF7A4
:1023B0006EFA10BD38B5002406E0002500E06D1C63
:1023C000B5F57A7FFBD3641CB4F57A7FF5D3012190
:1023D0000820FEF767FC14208DF8030003208DF819
:1023E00002004020ADF800006946E848FEF79EF97B
:1023F0008020ADF800006946E448FEF797F9012017
:10240000FFF7C8FF0120FFF7CDFF38BD10B5012051
:10241000FFF7C8FF0120FFF7BDFF0020FFF7C2FF55
:102420000020FFF7B7FF10BD10B50020FFF7BAFF7F
:102430000120FFF7AFFF0120FFF7B4FF10BD70B51B
:102440000546002411E080212141294009B10121E4
:1024500000E000210846FFF7A5FF0120FFF79AFFE3
:102460000020FFF797FF601CC4B2082CEBDB0120B3
:10247000FFF790FF0020FFF78DFF70BD10B50446F9
:10248000FFF7C4FF7820FFF7DAFF0020FFF7D7FF40
:102490002046FFF7D4FFFFF7C7FF10BD70B5054614
:1024A0000E46FFF7B3FF7820FFF7C9FF4020FFF784
:1024B000C6FF002404E0285DFFF7C1FF601CC4B222
:1024C000B442F8DBFFF7B0FF70BD70B505460C46AF
:1024D00045F0B000FFF7D2FF102141EA1410FFF7DA
:1024E000CDFF04F00F00FFF7C9FF70BD10B5002449
:1024F0000BE000212046FFF7E8FFA54901EBC410DF
:102500008021FFF7CBFF601CC4B2082CF1DB10BDAB
:1025100000200CE0002106E000229D4B03EBC013DD
:102520005A544A1CD1B28029F6DB421CD0B208288A
:10253000F0DB704710B5FFF73DFFAE20FFF79EFFC1
:10254000D520FFF79BFF8020FFF798FFA820FFF71B
:1025500095FF3F20FFF792FFD320FFF78FFF00206A
:10256000FFF78CFF4020FFF789FFA120FFF786FFD0
:10257000C820FFF783FFDA20FFF780FF1220FFF764
:102580007DFF8120FFF77AFFCF20FFF777FFD9206B
:10259000FFF774FFF120FFF771FFDB20FFF76EFFFD
:1025A0003020FFF76BFFA420FFF768FFA620FFF79E
:1025B00065FF8D20FFF762FF1420FFF75FFFAF205C
:1025C000FFF75CFFFFF7A4FFFFF790FF10BD10B50A
:1025D0000246012000E050430B1EA1F10101FAD197
:1025E00010BD2DE9F04305460C461F46079E4FF0EF
:1025F000000C00216B1E34E032F91100B04201DD05
:10260000012000E0002032F91380B04502DD4FF0D8
:10261000010801E04FF0000840451FD034F91300D5
:1026200034F91180A0EB080032F91180A6EB0808FC
:1026300000FB08F032F9138032F91190A8EB090879
:1026400090FBF8F034F911804044B84206DDBCF14B
:10265000000F01D1012000E0002084460B46481CF9
:1026600001B2A942C8DB0CF0FF00BDE8F0832DE900
:10267000FF4F87B08B461446994607980AF0F7FF3C
:1026800005460E4658460AF0F2FF07462A463346EC
:1026900009F0A2FE3F4A404BCDE900010AF0F6FDE9
:1026A00000223E4BCDE902010BF048F8CDE90401D0
:1026B0000AF080FF0FFA80FA4C4507DAA2450BDBDF
:1026C000CA4509DC01200BB0BDE8F08FA24501DA54
:1026D000CA4501DC0120F6E70020F4E72DE9F041CE
:1026E00005460C46174698467F2D01DDBDE8F08172
:1026F0003F2C00DDFAE7E819802802DDC5F18000F3
:10270000C7B204EB0800402803DDC4F1400000F02C
:10271000FF082046E11704EB5171C1F3C7060CE036
:1027200029463046FFF7D1FE194901EBC611481979
:102730003946FFF7B3FE701CC6B204EB0801481E11
:10274000C11700EB5171012202EBE101B142E7DC5C
:1027500000BFCBE72DE9F04304460D4616461F4661
:102760007F2C01DDBDE8F0833F2D00DDFAE7A119E4
:10277000802902DDC4F18001CEB2E919402902DDD1
:10278000C5F14001CFB228463BE00000000C0140FB
:10279000940000201F85EB51B81E09400080664060
:1027A000234629E04FEAE07C00EB5C7C4FEAEC0C2E
:1027B000DFF85C8408EBCC1C1CF803C002464FEA2F
:1027C000E07800EB58784FEAE808A0EBC8094FF032
:1027D000010808FA09F82CEA080C01464FEAE078EB
:1027E00000EB58784FEAE808DFF8249409EBC818A2
:1027F00008F803C0591CCBB2A1199942D2DC411C84
:10280000C8B2E9198142CBDC00BFABE7002011E080
:1028100000210BE0FE4A02EBC012525C82F0FF0284
:10282000FB4B03EBC0135A544A1CD1B28029F1DB95
:10283000421CD0B20828EBDB70472DE9F043044678
:102840000D4616461F467F2C01DDBDE8F0833F2D67
:1028500000DDFAE7A119802902DDC4F18001CEB2C2
:10286000E919402902DDC5F14001CFB2284630E028
:10287000234629E04FEAE07C00EB5C7C4FEAEC0C5D
:10288000DFF88C8308EBCC1C1CF803C002464FEA2F
:10289000E07800EB58784FEAE808A0EBC8094FF061
:1028A000010808FA09F88CEA080C01464FEAE078BA
:1028B00000EB58784FEAE808DFF8549309EBC818A2
:1028C00008F803C0591CCBB2A1199942D2DC411CB3
:1028D000C8B2E9198142CBDC00BFB6E72DE9F04769
:1028E00007460C4690469946DDF820A07F2F01DD73
:1028F000BDE8F0873F2C00DDFAE74B464246214613
:102900003846FFF727FF002570E0002669E0B81978
:102910007F2800DD67E0E11704EB517105EBE10171
:10292000072900DDE4E72046E21704EB527205EBCD
:10293000E202B74B03EBC212BB19D25C2146E3178C
:1029400004EB5373DB10A4EBC30305FB086C1AF80C
:102950000CC00CFA03FC42EA0C02E31704EB5373BD
:1029600005EBE303DFF8A8C20CEBC31307EB060C7F
:1029700003F80C20E11704EB517105EBE101491C50
:10298000072900DD2BE02046E21704EB527205EB2D
:10299000E202521C9E4B03EBC212BB19D25C2146D1
:1029A000E31704EB5373DB10A4EBC303C3F1080379
:1029B00005FB086C1AF80CC04CFA03FC42EA0C0246
:1029C000E31704EB537305EBE3035B1CDFF840C232
:1029D0000CEBC31307EB060C03F80C2000BF701CB4
:1029E000C6B2464593DB00BF681CC5B2A9F1010021
:1029F000C11700EB5171012202EBE101A94284DC15
:102A000000BF75E7F8B506460F4614461D46082D6B
:102A10000CD1A4F120007F4901EB00101023082203
:102A2000394600903046FFF759FF0FE0062D0DD1D3
:102A3000A4F1200000EB4000774901EB400008239F
:102A40000622394600903046FFF748FFF8BD2DE9D1
:102A5000F0410646884615461F46002409E02A5DD7
:102A600004FB0761C8B23B464146FFF7CBFF601C41
:102A7000C4B2285D0028F2D1BDE8F0812DE9F0470D
:102A80000646894617461D46DDF82080002417E0DB
:102A9000281B411E0A20FFF79AFDB7FBF0F00A2120
:102AA000B0FBF1F201FB120000F1300A04FB0861F7
:102AB000C8B2434652464946FFF7A4FF601CC4B261
:102AC000AC42E5DBBDE8F0872DE9F04F80468A4651
:102AD00015461E46DDF82490002D07DB4B462B22C1
:102AE00051464046FFF78EFF2F4606E04B462D220B
:102AF00051464046FFF786FF6F42002418E0301B26
:102B0000411E0A20FFF763FDB7FBF0F00A21B0FB7E
:102B1000F1F201FB120000F1300B611C01FB098195
:102B2000C8B24B465A465146FFF76CFF601CC4B210
:102B3000B442E4DBBDE8F08F2DE9F04706468A4653
:102B400091461F46DDF82080002421E0381B411EFD
:102B50001020FFF73CFDB9FBF0F000F00F050A2D47
:102B60000ADA05F13001CAB204FB0861C8B2434673
:102B70005146FFF747FF09E005F13701CAB204FBF0
:102B80000861C8B243465146FFF73CFF601CC4B21F
:102B9000BC42DBDBBDE8F0872DE9F04706468946FD
:102BA00017461D46DDF82080002414E0281B411E36
:102BB0000220FFF70CFDB7FBF0F000F0010000F180
:102BC000300A04FB0861C8B2434652464946FFF743
:102BD00019FF601CC4B2AC42E8DBBDE8F0872DE908
:102BE000FF5F84B0074615461E46DDE91289149C36
:102BF000284631460AF00EFD83463919C8B24346CD
:102C00005A4600940599FFF739FF08F1010105E0E4
:102C10009400002046E3000836E9000801FB047137
:102C2000C8B223462E220599FFF7ECFE284631460E
:102C30000AF0F0FC83460AF031FD2A463346CDE91E
:102C400002010AF0AFFE05460E4649460A20FFF78C
:102C5000BEFC824650460AF021FD2A463346CDE9A5
:102C600000010AF06BFDCDE902010AF0D3FCB0FBD4
:102C7000FAF10AFB110B08F1020101FB0471C8B261
:102C80004B465A4600940599FFF7F8FE08B0BDE898
:102C9000F09F2DE9FC478046894616460027002014
:102CA0000190002538E0705D01A9C855781CC7B2B5
:102CB000032F2FDB002700240BE004EBC401FE4AA6
:102CC00002EB810001A907F071FC00B90BE0601C68
:102CD000C4B204EBC401F84A02EB8100F7A107F08B
:102CE00065FC0028E9D100BF681C032190FBF1F0CE
:102CF000401E08EB001000F0FF0A04EBC400EE4990
:102D000001EB8000001D10231A46494600905046F2
:102D1000FFF7E4FD681CC5B2705D0028C3D1BDE8B3
:102D2000FC870FB470B58AB005460E46144612A84B
:102D3000019002A8019A119906F084FF00200190E9
:102D4000234602AA31462846FFF781FE0AB070BC2E
:102D50005DF814FB70B503467F2B00DD70BD3F2985
:102D600000DDFBE7CC1701EB5474E410D44D05EB08
:102D7000C414E45C0A46CD1701EB5575ED10A1EBC8
:102D8000C5060125B5402C430846CD1701EB557506
:102D9000ED10CB4E06EBC515EC5400BFDEE770B569
:102DA00002467F2A01DD002070BD3F2901DD0020A1
:102DB000FAE7CC1701EB5474E410C14D05EBC414D1
:102DC000A45CCD1701EB5575ED10A1EBC5060125EF
:102DD000B5402C400CB10120E6E70020E4E72DE9E6
:102DE000FF4F86B0069F079EDDF82080DDF8249017
:102DF0000020019000904E450FD1474502DDBA46B4
:102E00004746D0463C4605E0F1B2E0B2FFF7A2FFEC
:102E1000601C04B24445F7DD99E047450FD14E45AB
:102E200002DDB2464E46D146354605E0E9B2F8B27B
:102E3000FFF790FF681C05B24D45F7DD87E0474579
:102E400005DDBA464746D046B2464E46D1464E45C7
:102E500007DD704206B2C9F100000FFA80F90120C7
:102E60000190A9EB0600A8EB0701884207DDBA46EE
:102E700037465646C246C846D14601200090A8EBC8
:102E8000070000B20590A9EB06000FFA80FB4FEA9D
:102E90004B0000B203900598ABEB0000400000B27D
:102EA00002900598C0EB4B0000B204903C463546BA
:102EB000019838B1009828B16242D1B2E8B2FFF768
:102EC00049FF12E0019828B16A42D1B2E0B2FFF79F
:102ED00041FF0AE0009820B1E1B2E8B2FFF73AFF03
:102EE00003E0E9B2E0B2FFF735FF2EE0601C04B268
:102EF0000498002805DADDE90310084400B20490C4
:102F000006E0681C05B202990498084400B20490D7
:102F1000019838B1009828B16242D1B2E8B2FFF707
:102F200019FF12E0019828B16A42D1B2E0B2FFF76E
:102F300011FF0AE0009820B1E1B2E8B2FFF70AFF02
:102F400003E0E9B2E0B2FFF705FF4445CEDB0AB08B
:102F5000BDE8F08F2DE9F04705460E461746984626
:102F6000DDF820A0BAF1000F24D12C460CE0314648
:102F70002046FFF7EFFE06EB0800401EC1B22046D8
:102F8000FFF7E8FE601CC4B2E819A042EFDC34464B
:102F90000BE021462846FFF7DDFEE919491EC8B2BD
:102FA0002146FFF7D7FE601CC4B206EB0800A04222
:102FB000EFDC14E02C460FE0B14607E0494620461E
:102FC000FFF7C8FE09F1010000F0FF0906EB080059
:102FD0004845F3DC601CC4B2E819A042ECDCBDE853
:102FE000F0872DE9FF4F87B014461D46DDE91467D1
:102FF000DDF81C80DDF82090DDF81C80CDF818800D
:10300000DDF82090CB46DDF81C80ADF80C80ADF8E3
:103010000E40ADF81060DDF82090ADF80490ADF8EA
:103020000650ADF80870169890B92B462246DDE997
:103030000701FFF7D4FE3B463246DDE90701FFF703
:10304000CEFE3B46324629462046FFF7C8FE40E00A
:10305000444500DAA046464500DAB0464D4500DA60
:10306000A9464F4500DAB9460698844200DD069429
:103070000698864200DD06965D4500DDAB465F455D
:1030800000DDBB46C24621E0CDF8149010E0059863
:10309000534601AA03A900900320FFF7A2FA18B132
:1030A00050460599FFF756FE0598401CC0B20590A2
:1030B00005985845EBDD05E070EB000800000000C6
:1030C000940000200AF1010000F0FF0A06988245F2
:1030D000DADD0BB0BDE8F08F2DE9F04F07460E4664
:1030E00091469A46C9F1010B00254C463219D1B2DE
:1030F0007A19D0B2FFF72EFE321BD1B27A1BD0B2B2
:10310000FFF728FE7219D1B23A19D0B2FFF722FEAA
:10311000721BD1B23A1BD0B2FFF71CFEBAF1000FFE
:103120000FD060420FFA80F809E006EB0800C1B248
:103130003846FFF70FFE08F101000FFA80F8A045AE
:10314000F3DB75E0681C05B2BBF1000F05DA68001F
:10315000401C58440FFA80FB07E0601E04B2281B95
:103160004000401C58440FFA80FB3219D1B27A1942
:10317000D0B2FFF7EFFD7219D1B23A19D0B2FFF712
:10318000E9FD321BD1B27A1BD0B2FFF7E3FD721B0F
:10319000D1B23A1BD0B2FFF7DDFD321BD1B27A19A2
:1031A000D0B2FFF7D7FD721BD1B23A19D0B2FFF7F8
:1031B000D1FD3219D1B27A1BD0B2FFF7CBFD721913
:1031C000D1B23A1BD0B2FFF7C5FDBAF1000F2FD034
:1031D00060420FFA80F811E006EB0802D1B27A19CA
:1031E000D0B2FFF7B7FD06EB0802D1B27A1BD0B21E
:1031F000FFF7B0FD08F101000FFA80F8A045EBDB06
:1032000068420FFA80F811E006EB0802D1B23A1BCF
:10321000D0B2FFF79FFD06EB0802D1B23A19D0B247
:10322000FFF798FD08F101000FFA80F8A845EBDBE5
:10323000A54287DBBDE8F08F2DE9FF4F97B0074629
:103240000E469B46DDF864A0D94600254C46C9F1E0
:1032500000000AF00CFA0022FE4BCDE9080109F04B
:1032600059FFCDE90C010AFB0AF00AF000FACDE99A
:103270000A01DDE90C230AF061FACDE9100109FB2E
:1032800009F00AF0F4F9CDE90E01DDE9102309F0A7
:1032900041FFCDE9120109F00BFF15902498A8B168
:1032A00060420FFA80F80FE006EB0800C1B2384622
:1032B000FFF750FD06EB0800C1B23846FFF74AFDA4
:1032C00008F101000FFA80F8A045EDDB3219D1B208
:1032D0007A19D0B2FFF73EFD321BD1B27A1BD0B2C1
:1032E000FFF738FD3219D1B27A1BD0B2FFF732FDA9
:1032F000321BD1B27A19D0B2FFF72CFD5BE000216E
:1033000015980AF0FDFD0DD809FB09F16A00D21CE1
:1033100001FB02F00AF0DCFD139015990AF04AFD5A
:10332000159014E009FB09F16A00D21C51430AFB15
:103330000AF26300C3F1020302FB03100AF0C8FDA6
:10334000139015990AF036FD1590601E04B2681CA2
:1033500005B22498B8B160420FFA80F811E006EB8C
:103360000802D1B27A19D0B2FFF7F4FC06EB0802DA
:10337000D1B27A1BD0B2FFF7EDFC08F101000FFAD1
:1033800080F8A045EBDB3219D1B27A19D0B2FFF741
:10339000E1FC321BD1B27A1BD0B2FFF7DBFC321951
:1033A000D1B27A1BD0B2FFF7D5FC321BD1B27A1959
:1033B000D0B2FFF7CFFC20460AF059F90022A54B06
:1033C000CDE90A010AF0E0FBCDE90E010AFB0AF0A3
:1033D0000AF04DF9CDE90C01DDE90E230AF0AEF952
:1033E000CDE9120109FB09F16A1C01FB02F00AF0A8
:1033F0003EF9CDE91001DDE912230AF063F9FFF48B
:103400007EAF0AFB0AF101FB09F101FB09F00AF0AA
:103410002EF9CDE910010AFB0AF1621E514301FBAE
:1034200002F00AF024F9CDE90C0128460AF01FF950
:103430000022884BCDE9040109F06CFECDE90801BA
:1034400028460AF014F90022824BCDE9000109F068
:1034500061FECDE9040109FB09F00AF008F9CDE9A4
:103460000201DDE904230AF069F9CDE90601DDE98D
:1034700008230AF063F9CDE90A01DDE90C2309F01C
:1034800049FECDE90E01DDE910230AF07DFBCDE90F
:10349000120109F00DFE14905CE0002114980AF06E
:1034A0002FFD15D809FB09F16A00921C51430AFB54
:1034B0000AF26300C3F1030302FB03100AF008FDE4
:1034C000139014990AF076FC1490681C05B20DE074
:1034D0000AFB0AF16200C2F1030201FB02F00AF0EA
:1034E000F7FC139014990AF065FC1490601E04B266
:1034F0002498B8B160420FFA80F811E006EB080298
:10350000D1B27A19D0B2FFF725FC06EB0802D1B28E
:103510007A1BD0B2FFF71EFC08F101000FFA80F809
:10352000A045EBDB3219D1B27A19D0B2FFF712FC09
:10353000321BD1B27A1BD0B2FFF70CFC3219D1B2D8
:103540007A1BD0B2FFF706FC321BD1B27A19D0B287
:10355000FFF700FC002CA0DC1BB0BDE8F08F2DE9CC
:10356000F05F07460E4691469B46C9F1010A0025C9
:103570004C465A46214628460A9BFFF778F828B160
:103580003219D1B27A19D0B2FFF7E4FB5A46604241
:1035900001B2684200B20A9BFFF769F828B1321BFA
:1035A000D1B27A1BD0B2FFF7D5FB5A462946204646
:1035B0000A9BFFF75CF828B17219D1B23A19D0B260
:1035C000FFF7C8FB5A46684201B2604200B20A9B4C
:1035D000FFF74DF828B1721BD1B23A1BD0B2FFF7FA
:1035E000B9FB0B98B0B160420FFA80F810E05A4670
:1035F000414600200A9BFFF73AF828B106EB080085
:10360000C1B23846FFF7A6FB08F101000FFA80F8B7
:10361000A045ECDBD6E0681C05B2BAF1000F05DA74
:103620006800401C50440FFA80FA07E0601E04B2A4
:10363000281B4000401C50440FFA80FA5A4621468D
:1036400028460A9BFFF713F840B13219D1B27A1914
:10365000D0B201E00000E03FFFF77CFB5A4629466C
:1036600020460A9BFFF703F828B17219D1B23A1924
:10367000D0B2FFF76FFB5A46604201B2684200B217
:103680000A9BFEF7F4FF28B1321BD1B27A1BD0B2ED
:10369000FFF760FB5A46684201B2604200B20A9BE3
:1036A000FEF7E5FF28B1721BD1B23A1BD0B2FFF78B
:1036B00051FB5A46604201B228460A9BFEF7D7FFEB
:1036C00028B1321BD1B27A19D0B2FFF743FB5A4668
:1036D000684201B220460A9BFEF7C9FF28B1721B5F
:1036E000D1B23A19D0B2FFF735FB5A4621466842AB
:1036F00000B20A9BFEF7BBFF28B13219D1B27A1B88
:10370000D0B2FFF727FB5A462946604200B20A9B17
:10371000FEF7ADFF28B17219D1B23A1BD0B2FFF754
:1037200019FB0B9800284DD060420FFA80F820E07A
:103730005A46414628460A9BFEF799FF30B106EBF0
:103740000802D1B27A19D0B2FFF704FB5A464146BB
:10375000684200B20A9BFEF78AFF30B106EB08020E
:10376000D1B27A1BD0B2FFF7F5FA08F101000FFAD7
:1037700080F8A045DCDB68420FFA80F820E05A466A
:103780004146604200B20A9BFEF771FF30B106EB82
:103790000802D1B23A1BD0B2FFF7DCFA5A464146D2
:1037A00020460A9BFEF763FF30B106EB0802D1B258
:1037B0003A19D0B2FFF7CEFA08F101000FFA80F8FB
:1037C000A845DCDBA542FFF626AFBDE8F09F10B5AB
:1037D000FEF79EFE082333A200212720FFF737F9CA
:1037E00010237F2200210846FFF727F82FA211217E
:1037F0001F20FFF74EFA31A223211F20FFF749FABD
:10380000FEF774FE10BD10B5FEF782FE082325A258
:1038100000212720FFF71BF910237F2200210846F3
:10382000FFF70BF829A211211F20FFF732FAFEF74C
:103830005DFE10BD10B5FEF76BFE082319A2002136
:103840002720FFF704F910237F2200210846FEF706
:10385000F4FF22A211211F20FFF71BFA23A223212C
:103860001F20FFF716FAFEF741FE10BD10B5FEF758
:103870004FFE22A20A210F20FFF70BFA082323A2F2
:103880000A215020FFF7E3F821A21A210F20FFF7A9
:1038900000FAFEF72BFE10BD10B5FEF739FEFEF75D
:1038A00025FE10BD53454C4543540000E697B6E94C
:1038B00097B4E6A8A1E5BC8F00000000E98791E974
:1038C000A29DE6A8A1E5BC8F00000000E58DA1E760
:1038D0008987E58585E580BC00000000E5BA94E7AE
:1038E00094A8E694AFE4BB9800000000E58DA1E742
:1038F0008987E694AFE4BB9800000000E689ABE757
:10390000A081E4B88BE8BDBD00000000415050002C
:10391000E58DB3E58FAFE5AE8CE68890E6938DE458
:10392000BD9C00007FB505460C4601210220FDF735
:10393000C6F90020ADF80A00ADF80600ADF8085051
:10394000ADF8044001A99148FDF7E8FC01221146B9
:103950008E48FEF75AF801218C48FEF715FB1D2012
:103960008DF8000001208DF8030002208DF8010081
:1039700003208DF802006846FCF70FFE0121834802
:10398000FEF728F87FBD2DE9FC4181A103C9CDE9EF
:10399000000101217D48FEF7DAFA00287ED07E483A
:1039A000006818B17C480068012826D17B4800686F
:1039B00020B17A480068401E78490860784800685D
:1039C00058B176480068002807DC75480068401E3A
:1039D000734908603B2071490860714800680028FD
:1039E00009DC6E480068002805DC6848FDF7C2FB6A
:1039F00001206C49086004F02BFA6748006804282D
:103A000012D1694800680A306749086008460068B2
:103A10003C2807DB65480068401C644908600020BA
:103A20006149086004F057FA082269466048FEF7C9
:103A30002FFC4FF4FA70FEF7E1FA5EA16A48FEF738
:103A400040FC002407E06948035D224668A16648FF
:103A5000FEF737FC641C262CF5DB6CA16248FEF7F0
:103A600030FC7849614801F005F97649086809F0A9
:103A700015FE06460022744B09F008FC044609F0C6
:103A800017FB724908606F49486809F007FE06464F
:103A900000226D4B09F0FAFB044600E070E009F0EB
:103AA00007FB6B4908606749886809F0F7FD06461F
:103AB0000022654B09F0EAFB044609F0F9FA654972
:103AC00008606049C86809F0E9FD064600225E4BBF
:103AD00009F0DCFB044609F0EBFA5F49086059493C
:103AE000086909F0DBFD064600225C4B09F0CEFBBD
:103AF000044609F0DDFA5A4908605249486909F05C
:103B0000CDFD06460022504B09F0C0FB044609F0EB
:103B1000CFFA544908604B49886909F0BFFD064651
:103B20000022514B09F0B2FB044609F0C1FA4F499B
:103B300008604449C86909F0B1FD064600224A4BB5
:103B400009F0A4FB044609F0B3FA4949086049A109
:103B50002548FEF7B6FB002408E03A4850F8243028
:103B6000224651A12048FEF7ACFB641C082CF4DB74
:103B700040A11D48FEF7A5FB2021324806F0EFFCCE
:103B800001210248FEF700FABDE8FC810004004074
:103B9000010300480008C41A8400002030000020FF
:103BA0002C00002038000020600000205C00002075
:103BB000004800402D2D2D2D2D2D2D2D2D2D2D2D61
:103BC0002D2D2D2D2D2D2D20494D313238314220D6
:103BD0002D2D2D2D2D2D2D2D2D2D2D2D2D2D2D2D15
:103BE0002D2D2D2D2D0D0A000038014094040020AC
:103BF000494D31323831425F6275665B25645D2024
:103C00003D203078253032780D0A00002D2D2D2DE5
:103C10002D2D2D2D2D2D2D2D2D2D2D2D2D2D2D20E1
:103C2000494D3132383142202D2D2D2D2D2D2D2D68
:103C30002D2D2D2D2D2D2D2D2D2D2D2D2D0D0A0D17
:103C40000A000000140500200088C3403C0000204A
:103C500040000020440000204800002000408F4029
:103C60004C0000205000002000005940540000206B
:103C7000580000202D2D2D2D2D2D2D2D2D2D2D2DB0
:103C80002D2D2D2D2D20494D3132383142204461CA
:103C90007461202D2D2D2D2D2D2D2D2D2D2D2D2DE6
:103CA0002D2D2D2D2D0D0A00646174615B25645D41
:103CB000203D2025640D0A0008B501210820FCF7ED
:103CC000F1FF01210846FCF7EDFF4FF47040ADF81D
:103CD000000048208DF8030069463448FCF726FDB3
:103CE00008BD10B50446012C01D131490870304897
:103CF000007801283CD101032C48FCF7AAFD88B1CB
:103D00004FF400512948FCF7A4FD58B14FF480410D
:103D10002648FCF79EFD28B14FF400412348FCF7EC
:103D200098FD28BB0A20FEF769F900202049087099
:103D30004FF480511D48FCF78CFD08B90C2010BDD4
:103D40004FF400511948FCF784FD08B90D20F6E73F
:103D50004FF480411548FCF77CFD08B90E20EEE7D2
:103D60004FF400411148FCF774FDE0B90F20E6E77D
:103D70004FF480510D48FCF76CFD012813D141032D
:103D80000A48FCF766FD01280DD181030748FCF7BE
:103D900060FD012807D1C1030448FCF75AFD012842
:103DA00001D1034908700020C9E70000000C014060
:103DB0006400002070B50024FFF73CFD33E00020D4
:103DC000FFF78FFF05460E2D06D1641C204604EB3D
:103DD000D0714910A4EB41040F2D01D1204670BDD4
:103DE00014B1012C1AD10CE008233E221121142019
:103DF000FEF708FE0823202222211420FEF702FEEF
:103E00000DE00823202211211420FEF7FBFD0823DA
:103E10003E2222211420FEF7F5FD00E000BF00BF86
:103E2000FEF764FB00BFCAE770B50024B9E00020CC
:103E3000FFF757FF05460E2D05D1641C052094FBA6
:103E4000F0F100FB11440F2D01D1204670BD052C6F
:103E50007DD2DFE804F0032A43648700FEF758FBB5
:103E60000823F7A200212720FEF7F1FD10237F226F
:103E700000210846FEF7E1FC08233E221121142010
:103E8000FEF7C0FDF0A211211F20FEF702FF08235C
:103E9000202222211420FEF7B5FDEFA223211F20AE
:103EA000FEF7F7FEFEF722FB79E00823202211211E
:103EB0001420FEF7A7FDE4A211211F20FEF7E9FE62
:103EC00008233E2222211420FEF79CFDE2A223219A
:103ED0001F20FEF7DEFEFEF709FB60E0FEF718FB91
:103EE0000823D7A200212720FEF7B1FD10237F224F
:103EF00000210846FEF7A1FC08233E2211211420D0
:103F0000FEF780FDD8A211211F20FEF7C2FEDAA223
:103F100023211F20FEF7BDFEFEF7E8FA3FE0FEF783
:103F2000F7FA0823C6A200212720FEF790FD1023F0
:103F30007F2200210846FEF780FC08233E22232131
:103F40001420FEF75FFDC8A211211F2000E025E02C
:103F5000FEF79FFEC8A223211F20FEF79AFEFEF760
:103F6000C5FA1CE0FEF7D4FA0823B5A200212720E9
:103F7000FEF76DFD10237F2200210846FEF75DFC51
:103F800008233E2211211420FEF73CFDBEA2112180
:103F90001F20FEF77EFEFEF7A9FA00E000BF00BF7B
:103FA00000BF44E72DE9FC4704460D4616461F4670
:103FB000DDE90A89FEF7ACFAB7A200210846FEF750
:103FC00068FEB7A3082200212120CDE90045FEF7B5
:103FD000A8FEB6A212210020FEF75BFEB5A30822C0
:103FE00012212120CDE90067FEF79BFEB4A2242117
:103FF0000020FEF74EFEB4A3082224212120CDE9A3
:104000000089FEF78EFEFEF771FABDE8FC872DE908
:10401000FF5F0024A1460120AE490860FFF7CAFEF9
:104020008246FEF775FAF9E10020FFF75AFE834653
:10403000BBF10C0F76D0BBF10D0F74D0BBF10E0F9E
:1040400003D0BBF10F0F6FD106E0641C032094FB7B
:10405000F0F100FB114479E100209F4908609F497D
:104060000860C9EB091040009D4908609D4908603F
:10407000012C5AD1BAF1000F57D1FFF7F7FB4FF4DB
:10408000FA60FDF7BBFF48F69F414FF4FA60FFF777
:1040900049FCA1039448FCF7F6FB42E09348006812
:1040A00009F05CFE05460E469148006809F056FE90
:1040B000074688468F48006809F050FE3A46434656
:1040C000CDE90056CDE90201FFF76CFF0020FFF7B4
:1040D00008FE28B98848006810B988480068A0B16F
:1040E0004FF480418048FCF7D0FB8548FDF742F84B
:1040F000002081490860814908607A490860774951
:10410000086003F0A5FEBDE8FF9F79480168794883
:10411000006803F03AF94FF4FA70FDF76FFF05F00D
:10412000B9FBBBE77AE084E00FE1012C72D1BAF170
:10413000010F6FD1FEF7ECF972A200210846FEF7DD
:10414000A8FDFEF7D3F909F0FF020421C02002F018
:10415000DDFF70A210210020FEF79BFD042003F07C
:1041600034F80546082003232A46102100904620F3
:10417000FEF784FC6BA220210020FEF78AFDFEF7EB
:10418000B5F948F69F414FF4FA60FFF7CBFBA10366
:104190005548FCF778FB3BE05448006809F0DEFD29
:1041A00005460E465248006809F0D8FD0746884685
:1041B0005048006809F0D2FD3A464346CDE9005622
:1041C000CDE90201FFF7EEFE0020FFF78AFD28B9D6
:1041D0004948006810B94948006898B14FF48041D7
:1041E0004148FCF752FB4648FCF7C4FF0020424917
:1041F0000860424908603B4908603849086003F09C
:1042000027FE80E74FF4FA70FDF7F8FE05F042FB59
:10421000C2E7FFE7022C00D175E797E009F1010939
:10422000082002234A46002100905020FEF726FC79
:104230008CE0B9F1000F7DDC4FF00009EEE079E091
:1042400053454C4543540000E697B6E997B4E6A8B9
:10425000A1E5BC8F00000000E98791E9A29DE6A8D6
:10426000A1E5BC8F00000000E58DA1E78987E58509
:1042700085E580BC00000000E69FA5E8AFA2E6A8A7
:10428000A1E5BC8F00000000E5BA94E794A8E6A879
:10429000A1E5BC8F00000000E794B5E58E8B00001F
:1042A0003A20252E3266205600000000E794B5E63D
:1042B000B58100003A20252E326620410000000022
:1042C000E794B5E9878F00003A20252E3266206BEF
:1042D00057680000840000202C0000206C000020A3
:1042E000300000206800002000100140480000203D
:1042F000400000203C00002038000020800000200A
:1043000000040040E8AFB7E694BEE58DA1E78987D9
:1043100000000000E58DA1E78987E4BD99E9A29D31
:1043200000000000E4BBBBE6848FE994AEE9808026
:10433000E587BA00A9F10109082002234A460021B5
:1043400000905020FEF79AFB00E000BF00BFFEF790
:10435000DFF824B1012C20D0022C5AD13BE00823F5
:104360003E2200210846FEF74DFBFAA20021142050
:10437000FEF78FFC082002234A46002100905020BF
:10438000FEF77CFBF5A211211420FEF782FCF5A2BA
:1043900023211420FEF77DFC3CE0EEA20021142036
:1043A000FEF777FC082002234A46002100905020A7
:1043B000FEF764FB08233E2211210020FEF722FBBA
:1043C000E6A211211420FEF764FCE6A223211420AA
:1043D000FEF75FFC1EE0DFA200211420FEF759FC6F
:1043E000082002234A46002100905020FEF746FB99
:1043F000DAA211211420FEF74CFC08233E222221D0
:104400000020FEF7FFFAD7A223211420FEF741FC7B
:1044100000E000BF00BFFEF769F800BF04E62DE929
:10442000F04F85B04FF0000A0020D049086004909A
:10443000FFF7C0FC0390FEF76BF86CE20020FFF77B
:1044400050FC8346BBF10E0F09D10AF1010A504618
:104450004FEAEA710AEB91718910AAEB810ABBF16C
:104460000F0F72D1BAF1020FFBD1C1480068C149E8
:104470000860C1480068C1490860BD490968BE4A72
:104480001268881809F024FD0490039810B10128DF
:104490007BD15BE0FFF7EAF9002404E04FF47A7087
:1044A000FDF7ACFD641C022CF8DB48F69F414FF48D
:1044B000FA60FFF737FA4FF48041B148FCF7E3F9AF
:1044C00042E0B048006809F049FC04460D46AE4899
:1044D000006809F043FC06460F46AC48006809F046
:1044E0003DFC804632463B46CDE90045FFF75AFD8C
:1044F0000020FFF7F6FB28B9A548006810B9A548C9
:104500000068A8B14FF480419D48FCF7BEF9A2486D
:10451000FCF730FE00209E4908609E4908609649DD
:1045200008609349086003F093FC05B0BDE8F08F84
:10453000954801689548006802F027FF4FF4FA702B
:10454000FDF75CFD05F0A6F9BBE79DE0FDF7E0FF98
:1045500080A200210846FEF79CFB049809F0FEFBB0
:1045600004460B460820022100912246CDE90110A5
:1045700000211E20FEF733FBAFF27822102100202D
:10458000FEF787FBFDF7B2FF00E07BE083A210217E
:104590000020FEF77EFB042002F017FE04460820F0
:1045A00003232246102100905020FEF767FA04985A
:1045B00009F06EFCC4B222460421C02002F0A6FD20
:1045C0007AA220210020FEF764FB042002F0FDFD0A
:1045D0000446082003232246202100905020FEF7A5
:1045E0004DFAFDF783FF002404E04FF47A70FDF7E5
:1045F00005FD641C022CF8DB48F69F414FF4FA607D
:10460000FFF790F94FF480415D48FCF73CF938E042
:104610005C48006809F0A2FB04460D465A48006851
:1046200009F09CFB06460F465848006809F096FBC7
:10463000804632463B46CDE90045FFF7B3FC0020FB
:10464000FFF74FFB28B95248006810B9514800687D
:1046500088B15148FCF78EFD00204D4908604D4956
:10466000086045490860424908604FF48041444869
:10467000FCF70BF959E7444801684448006802F028
:1046800084FEC5E700BF00BFBBF10F0F03D1BAF135
:10469000030F00D140E1BBF10C0F35D1BAF1000F8F
:1046A00016D133480068401C31490860084600684C
:1046B000182190FBF1F201FB12002D49086008203F
:1046C000022300900846002102685020FEF7D6F928
:1046D000BAF1010F16D128480068401C264908602D
:1046E000084600683C2190FBF1F201FB12002249D0
:1046F000086008200223009008461121026850201B
:10470000FEF7BCF9FDF7F2FEBBF10D0F66D1BAF171
:10471000000F14D11648006818B917201449086012
:10472000F9E013480068401E114908600820022380
:1047300000900846002102685020FEF79FF9BAF168
:10474000010F49D10C48006818B93B200A4908609C
:10475000E1E033E0E98791E9A29D0000E7A1AEE83E
:10476000AEA40000E98080E587BA00008400002044
:104770006C0000202C000020680000203000002089
:104780000010014048000020400000203C000020B4
:10479000380000208000002000040040E58DA1E4E6
:1047A000B88AE98791E9A29D00000000E58DA1E4A7
:1047B000B88AE4BD99E9A29D00000000F9480068AC
:1047C000401EF84908600820022300900846112185
:1047D00002685020FEF752F9FDF788FEFDF798FEBB
:1047E000BAF1000F09D0BAF1010F2FD0BAF1020FC0
:1047F00055D0BAF1030F28D17AE008233E220021D8
:104800000846FEF7FFF8E8A200211420FEF741FA5F
:10481000082002230090E548002102685020FEF79E
:104820002DF9E3A211211420FEF733FA0820022308
:104830000090DC48112102685020FEF71FF9AFF20A
:10484000E40223211420FEF724FA60E0D6A200211E
:104850001420FEF71EFA082002230090D3480021FE
:1048600002685020FEF70AF908233E221121002099
:10487000FEF7C8F8CEA211211420FEF70AFA08208C
:1048800002230090C748112102685020FEF7F6F875
:10489000AFF2381223211420FEF7FBF937E0C2A251
:1048A00000211420FEF7F5F9082002230090BF48EC
:1048B000002102685020FEF7E1F8BDA2112114206A
:1048C000FEF7E7F9082002230090B648112102689C
:1048D0005020FEF7D3F808233E2222210020FEF7C5
:1048E00091F8AFF2881223211420FEF7D2F90EE0DE
:1048F000FDF70EFE08233E2200210846FEF782F84F
:10490000AFF2A01200211420FEF7C3F900BF00BFD0
:10491000FDF7ECFD00BF91E500BF00BF05E6F8B56F
:1049200000240025B9E00020FFF7DBF906460C2E35
:1049300036D00D2E36D00E2E02D00F2E38D106E0F6
:104940006D1C032095FBF0F100FB115530E0012DAB
:1049500022D1FDF7DDFDAFF2546200210846FEF7DB
:1049600098F9FDF7C3FDE2B20421C12002F0CEFBAD
:1049700090A210210020FEF78CF9AFF2586220219E
:104980000020FEF786F9FDF7B1FD04E00020FFF7F7
:10499000A8F900B1F8BDF9E7022D00D1FAE707E068
:1049A000641C05E0002C01DC002476E0641E00BFDE
:1049B00000BFFDF7ADFD25B1012D29D0022D67D136
:1049C0004DE008237FA200211E20FEF740F81023AF
:1049D0007F2200210846FDF730FF08233E221121E7
:1049E0001420FEF70FF8AFF2942211211F20FEF7DA
:1049F00050F9082002232246112100905020FEF792
:104A00003DF8AFF2A82223211F20FEF742F940E033
:104A100008236CA200211E20FEF719F810237F2224
:104A200000210846FDF709FFAFF2D82211211F200F
:104A3000FEF72FF908200223224611210090502072
:104A4000FEF71CF808233E2222211420FDF7DAFF8E
:104A5000AFF2F82223211F20FEF71BF919E00823EB
:104A600058A200211E20FDF7F2FF10237F22002113
:104A70000846FDF7E2FE08233E2211211420FDF72F
:104A8000C1FFAFF2203211211F20FEF702F900E032
:104A900000BF00BFFDF72AFD00BF44E738B5FDF7B2
:104AA00037FD4BA200211E20FEF7F3F810237F22D2
:104AB00000210846FDF7C1FE49A210210020FEF7A3
:104AC000E8F8082349A210213C20FDF7C0FF082385
:104AD00048A210216720FDF7BAFFFDF707FD04206B
:104AE00002F073FB044608200423224610210090A4
:104AF0003C20FDF7C3FFFDF7F9FCAFF2D87220218F
:104B00000020FEF7C6F8FDF7F1FC04E00020FFF7F7
:104B1000E8F800B138BDF9E72DE9FC470020364937
:104B2000086036490860042035490860FDF7F0FC4C
:104B3000FEF79CFEFDF7DAFC4FF47A70FDF75EFAA3
:104B400003F0C9F92DE02F480068012804D10020A6
:104B50002C490860BDE8FC87002004F0FBFE82467B
:104B6000BAF1000F02D0504603F04EFA2648006812
:104B700009F0F4F804460D462448006809F0EEF800
:104B800006460F462248006809F0E8F8804632469B
:104B90003B46CDE90045FFF705FA6420FDF72EFA04
:104BA00000BFD0E768000020E697B6006C00002048
:104BB000E5888600E58585E580BCE5AE8CE68890D5
:104BC00000000000494E4352454D454E5400000040
:104BD000E58DA1E78987E69FA5E8AFA20000000068
:104BE000E58DA1E98791E9A29D00000078787878A9
:104BF00000000000524D42005C00002060000020D8
:104C00008400002088000020480000204000002090
:104C10003C000020F0B5014600260122002500BF1F
:104C20000846CF1701EB17773F11A1EB07140023BC
:104C300001E012015B1CAB42FBDB62431644012224
:104C40006D1CCF1701EB17773F11391EE8D13046A5
:104C5000F0BD10B580212A4805F081FC00202949CB
:104C6000088010BD10B504462046FDF7AFFAFFF7E7
:104C7000F0FF10BD2DE9F04105460E464FF000084B
:104C8000002417E0E01C285C0106201D285C41EA96
:104C90000041601D285C41EA0020A11D695C40EADA
:104CA00001073846FFF7B6FF414608F1010846F80C
:104CB0002100241D1D2CE5DBFFF7CBFFBDE8F081B3
:104CC00010B540F225511048FCF710FAB0B10D486C
:104CD0000088802802D300200A4908800A48001D65
:104CE0000088C1B2074802880088401C054B188024
:104CF0000348815420210448FCF7EFF910BD00005F
:104D000094040020700000200048004008B50121F4
:104D10001020FBF7C7FF10208DF803008002ADF8CC
:104D2000000003208DF8020069460448FBF7FEFCF2
:104D30004FF480410148FBF7A8FD08BD0010014079
:104D4000FE480068704770B504460D462CB9AC4269
:104D500001D0012070BD0020FCE70DB90120F9E76A
:104D600005E0207808B90020F4E7641C6D1C207869
:104D700004F05AFF0646287804F056FF8642F0D029
:104D8000207804F051FF0646287804F04DFF301AD1
:104D9000E0E770B50446204605F0D2FA451C2846E7
:104DA000E74909688847061E00D170BD2A4621469A
:104DB000304605F03BFB3046F7E730B9E149E04AC1
:104DC0001160E149E14A11607047016809B1016869
:104DD00000E0DC49DA4A1160416809B1416800E04D
:104DE000D949DA4A116000BFEEE710B52820D4494E
:104DF0000968884704461CB12821204605F0AFFB0E
:104E0000204610BD70B5044622E02568A08900F454
:104E1000807020B9A06810B1A068FFF7F3FFA089E7
:104E200000F4807028B9206918B1C8492069096860
:104E30008847A08900F4007028B9206A18B1C349D6
:104E4000206A096888472046C049096888472C4677
:104E5000002CDAD170BD2DE9F04F8BB083468A4625
:104E60000020044605460026B94F002188468946A1
:104E70000990012008909AF800002D2802D1B54F22
:104E80000AF1010A9AF80000302801D10AF1010A5A
:104E90009AF80000312822DB9AF8000039281EDC3D
:104EA00000BF1AF8011BA1F1300008F0E0FB00225E
:104EB000A94BCDE906012046294608F03FFCCDE983
:104EC0000401DDE9062308F025F904460D469AF8A9
:104ED0000000302803DB9AF800003928E1DD9AF859
:104EE00000002E2830D19AF8010030282CDB9AF8E7
:104EF0000100392828DC0AF1010A00BF1AF8011B59
:104F0000A1F1300008F0B3FB0022934BCDE906017C
:104F10002046294608F012FCCDE90401DDE906230C
:104F200008F0F8F804460D460022894B40464946F1
:104F300008F02AFE804689469AF80000302803DBF4
:104F40009AF800003928D9DD9AF80000652803D0C6
:104F50009AF80000452823D10AF1010A9AF80000C6
:104F60002B2802D10AF1010A08E09AF800002D2846
:104F700004D14FF0FF3008900AF1010A08E01AF856
:104F8000010B3038099901EB810100EB41000990D8
:104F90009AF80000302803DB9AF800003928EEDD8B
:104FA000DDE9082101FB02F008F061FB42464B46B7
:104FB000CDE9000108F0AEF802460B46CDE902014A
:104FC0000020654907F036FB22462B46CDE9060155
:104FD0003046394608F0B2FBCDE90401DDE906238D
:104FE00008F0ACFB04460D46CBE9064520462946B1
:104FF00008F0E0FACBF814000320CBF80C00504680
:105000000BB0BDE8F08F0146491E41EA610141EA5B
:10501000A10141EA211141EA212141EA2141481C33
:1050200070472DE9F04104460E460CB1206810B9D6
:105030000020BDE8F081A06806446068B04203DB50
:10504000A16820680844F4E73046FFF7DCFF074614
:1050500038463B490968884705463DB93B492068C1
:1050600009688847002060602060E2E725B1284693
:10507000D4E9001205F0DAF9344920680968884754
:1050800067602560A0682844D3E770B504460CB17A
:10509000206808B9002070BDA1682068451828461E
:1050A00005F04EF9A1680844F5E72DE9FC47824672
:1050B0000E464FF00009DAE9064500221346204665
:1050C000294608F03BFA13D12EB102213046FFF7F2
:1050D000A8FF814604E002201949096888478146F3
:1050E000B9F1000F03D01DA00088A9F800009FE0CF
:1050F000DAF8140008F0BBFA074622462B4608F0FF
:1051000043FD21F000410022154BCDE9000108F0DC
:10511000D9FA3ED8134A144B2046294608F0D2FA51
:1051200037D80022114B2046294608F005FC30D81C
:1051300006B315213046FFF774FF19E07400002014
:10514000780000207D9B0008DB9B00087C0000208D
:105150000000F03F0000F0BF0000244030000000DD
:105160000000B03C0000C0FFFFFFDF410000E0C1D5
:10517000814604E01520FA49096888478146B9F15B
:10518000000F55D0F7A14846DAF8142004F086FD48
:105190004EE02EB140213046FFF743FF814604E048
:1051A0004020EF49096888478146B9F1000F3FD098
:1051B0002046294607F0D0F9074622462B4608F03C
:1051C000E3FC21F000410022E74BCDE9000108F0AB
:1051D00079FA0FD825F000412746E44AE44B3846D7
:1051E00008F070FA06D222462B46E2A1484604F0A7
:1051F00055FD1DE025F000412746E04AE04B3846CA
:1052000008F060FA07D325F000410022DD4B384654
:1052100008F092FB06D222462B46DBA1484604F05A
:105220003DFD05E022462B46D8A1484604F036FD58
:105230004846BDE8FC87014600220878302806DB96
:105240000878392803DC08783038024415E00878FB
:10525000412806DB0878462803DC08783738024402
:105260000BE00878612806DB0878662803DC0878FC
:105270005738024401E0002070471201491C0878A9
:10528000302806DB0878392803DC087830380244F7
:1052900015E00878412806DB0878462803DC087802
:1052A000373802440BE00878612806DB0878662866
:1052B00003DC08785738024401E00020DCE71201E3
:1052C000491C0878302806DB0878392803DC087880
:1052D0003038024415E00878412806DB0878462873
:1052E00003DC0878373802440BE00878612806DBD5
:1052F0000878662803DC08785738024401E000206B
:10530000BAE71201491C0878302806DB08783928EA
:1053100003DC08783038024415E00878412806DBC1
:105320000878462803DC0878373802440BE0087810
:10533000612806DB0878662803DC087857380244C1
:1053400001E0002098E7104696E72DE9F05F8346DC
:10535000884608F10104002798F80000222805D0AB
:105360008B48C0F800800020BDE8F09F04E014F8EE
:10537000011B5C2900D1641C2078222804D02078ED
:1053800010B1781C071EF2D1781C7549096888474E
:105390008146B9F1000F01D10020E5E708F10104D1
:1053A0004D469EE020785C2804D014F8010B05F8E7
:1053B000010B96E0641C2078722818D006DC622865
:1053C00009D066280BD06E287ED10CE0742812D04C
:1053D0007528F9D113E0082005F8010B7FE00C20B7
:1053E00005F8010B7BE00A2005F8010B77E00D20A2
:1053F00005F8010B73E0092005F8010B6FE0601C54
:10540000FFF719FF0646241DB6F55C4F02D3B6F52B
:10541000604F00D306B962E0B6F5584F1CD3B6F51D
:105420005C4F19D260785C2802D1A078752800D032
:1054300055E0E01CFFF7FFFE8246A41DBAF55C4F65
:1054400002D3BAF5604F00D349E0C6F309015046D4
:1054500061F39F2000F580360427802E01D20127BA
:1054600008E0B6F5006F01D2022703E0B6F5803FF1
:1054700000D203273D44012F20D0022F15D0032F47
:105480000AD0042F24D106F0BF0040F08001681E2E
:1054900005460170B60900BF06F0BF0040F080016C
:1054A000681E05460170B60900BF06F0BF0040F057
:1054B0008001681E05460170B60900BF3548C05D11
:1054C0003043C1B2681E00E005E00546017000BF30
:1054D00000BF3D4403E0207805F8010B00BF00BF8A
:1054E000641C2078222803D0207800287FF45AAF4B
:1054F000002028702078222800D1641CCBF810905E
:105500000420CBF80C0020462EE72DE9F05F804602
:1055100089460027BB46454611E02878002802DD71
:105520002878202805DB2878222802D028785C28D3
:1055300001D1012000E0002040EA0B0B6D1C28780F
:105540000028EAD1BBF1000F3ED1A5EB0807B9F165
:10555000000F21D0F91C4846FFF763FD064620E006
:1055600078000020256400000000B03C44F3C2E451
:10557000E4E9634C252E3066000000008DEDB5A0F7
:10558000F7C6B03E65CDCD4125650000256600001B
:105590007400002050F20008F81CFD490968884793
:1055A000064616B90020BDE8F09F3446222004F8D4
:1055B000010B4146204604F09FFE2220E0550021C9
:1055C000781C21543046EEE7B8F1000F16D1B9F13E
:1055D000000F05D003214846FFF723FD064604E0EF
:1055E0000320EB490968884706460EB90020DAE730
:1055F000E8A1304604F080FE3046D4E745460BE093
:105600005146E5A004F04AFE08B17F1C03E0BAF160
:10561000200F00DA7F1D6D1C95F800A0BAF1000F75
:1056200002D0781C071EEBD1B9F1000F05D0F91C90
:105630004846FFF7F6FC064604E0F81CD449096822
:10564000884706460EB90020ADE73446454622207D
:1056500004F8010B47E028781F280ADD2878222863
:1056600007D028785C2804D015F8010B04F8010B4A
:1056700039E05C2004F8010B15F8011B8A460C295F
:1056800019D006DC082912D0092920D00A2922D1F4
:1056900015E00D2917D0222905D05C291BD15C20EB
:1056A00004F8010B1EE0222004F8010B1AE062202E
:1056B00004F8010B16E0662004F8010B12E06E20DE
:1056C00004F8010B0EE0722004F8010B0AE07420CC
:1056D00004F8010B06E05246B1A1204604F0DEFAC0
:1056E000641D00BF00BF28780028B4D1222004F830
:1056F000010B002004F8010B304654E770B5044656
:105700000D4629462069FFF700FF70BD00E0401CF0
:1057100020B1017811B101782029F8DD70472DE919
:10572000F04706460C4620787B2804D09E4804604B
:105730000020BDE8F0870620F060601CFFF7E6FF60
:10574000044620787D2801D1601CF2E7FFF74DFB6D
:105750000546B060B06808B90020EAE72046FFF7C8
:10576000D5FF804641462846FFF7EFFD0746FFF785
:10577000CDFF04460CB90020DBE728692862002031
:10578000286120783A2803D0874804600020D0E7B9
:10579000601CFFF7BBFF80464146284600F099F8A1
:1057A0000746FFF7B3FF04460CB90020C1E731E01C
:1057B000FFF71BFB071E00D1BBE72F607D603D4656
:1057C000601CFFF7A3FF814649462846FFF7BDFD51
:1057D0008046FFF79BFF04460CB90020A9E7286923
:1057E00028620020286120783A2803D06E4804609F
:1057F00000209EE7601CFFF789FF81464946284646
:1058000000F067F88046FFF781FF04460CB90020DE
:105810008FE700BF20782C28CAD020787D2801D1BE
:10582000601C86E760480460002082E72DE9F047AD
:1058300005460C4620785B2804D05B4804600020B5
:10584000BDE8F0870520E860601CFFF75FFF0446B5
:1058500020785D2801D1601CF2E7FFF7C6FA064602
:10586000A860A86808B90020EAE72046FFF74EFFC5
:1058700080464146304600F02CF80746FFF746FFC9
:1058800004460CB90020DBE717E0FFF7AEFA071E6D
:1058900000D1D5E737607E603E46601CFFF736FFDB
:1058A00081464946304600F014F88046FFF72EFF47
:1058B00004460CB90020C3E700BF20782C28E4D0B0
:1058C00020785D2801D1601CBAE7374804600020C9
:1058D000B6E770B505460C460CB9002070BD042231
:1058E00032A1204604F04BFD18B90220E860201DCB
:1058F000F4E705222FA1204604F041FD18B900204D
:10590000E860601DEAE704222CA1204604F037FD80
:1059100020B90120E8606861201DDFE72078222897
:1059200004D121462846FFF710FDD7E720782D281F
:1059300005D02078302807DB2078392804DC214680
:105940002846FFF788FAC9E720785B2804D121466A
:105950002846FFF76BFFC1E720787B2804D121465A
:105960002846FFF7DCFEB9E70F4804600020B5E7E2
:105970002DE9F04780460D4616460024FFF735FA1C
:105980000746002008490860E7B9BDE8F087000035
:105990007800002022220000225C080C0A0D090079
:1059A0007525303478000000740000206E756C6C32
:1059B0000000000066616C7365000000747275651C
:1059C000000000004046FFF7A1FE814649463846E8
:1059D000FFF77FFF04462CB93846FFF713FA002083
:1059E000BDE8F08766B12046FFF790FE04462078B8
:1059F00030B13846FFF706FAFE4804600020EFE7B2
:105A000005B12C603846EBE710B50446002211467C
:105A10002046FFF7ADFF10BD2DE9FF4F89B0884646
:105A200016461F4600200890079006904FF0070A80
:105A300000250998D0F8089000200290019000906D
:105A400004E00298401C0290D9F80090B9F1000FD0
:105A5000F7D10298002835D157B116B108F10400EA
:105A600000E0032001463846FFF7DBFA069009E024
:105A700016B108F1040100E003210846DE49096877
:105A800088470690069818B900200DB0BDE8F08F41
:105A9000069C7B2004F8010B66B10A2004F8010B78
:105AA000002503E0092004F8010B6D1CA8F101009A
:105AB000A842F7DC7D2004F8010B002004F8010B5C
:105AC0000698E2E7002F77D0BD680EB1022000E013
:105AD000012082460AF101013846FFF7A2FA044686
